{"abi":[{"type":"function","name":"balanceOf","inputs":[{"name":"account","type":"address","internalType":"address"},{"name":"id","type":"uint256","internalType":"uint256"}],"outputs":[{"name":"","type":"uint256","internalType":"uint256"}],"stateMutability":"view"},{"type":"function","name":"balanceOfBatch","inputs":[{"name":"accounts","type":"address[]","internalType":"address[]"},{"name":"ids","type":"uint256[]","internalType":"uint256[]"}],"outputs":[{"name":"","type":"uint256[]","internalType":"uint256[]"}],"stateMutability":"view"},{"type":"function","name":"isApprovedForAll","inputs":[{"name":"account","type":"address","internalType":"address"},{"name":"operator","type":"address","internalType":"address"}],"outputs":[{"name":"","type":"bool","internalType":"bool"}],"stateMutability":"view"},{"type":"function","name":"mint","inputs":[{"name":"to","type":"address","internalType":"address"},{"name":"id","type":"uint256","internalType":"uint256"},{"name":"amount","type":"uint256","internalType":"uint256"}],"outputs":[],"stateMutability":"nonpayable"},{"type":"function","name":"safeBatchTransferFrom","inputs":[{"name":"from","type":"address","internalType":"address"},{"name":"to","type":"address","internalType":"address"},{"name":"ids","type":"uint256[]","internalType":"uint256[]"},{"name":"amounts","type":"uint256[]","internalType":"uint256[]"},{"name":"data","type":"bytes","internalType":"bytes"}],"outputs":[],"stateMutability":"nonpayable"},{"type":"function","name":"safeTransferFrom","inputs":[{"name":"from","type":"address","internalType":"address"},{"name":"to","type":"address","internalType":"address"},{"name":"id","type":"uint256","internalType":"uint256"},{"name":"amount","type":"uint256","internalType":"uint256"},{"name":"data","type":"bytes","internalType":"bytes"}],"outputs":[],"stateMutability":"nonpayable"},{"type":"function","name":"setApprovalForAll","inputs":[{"name":"operator","type":"address","internalType":"address"},{"name":"approved","type":"bool","internalType":"bool"}],"outputs":[],"stateMutability":"nonpayable"},{"type":"function","name":"supportsInterface","inputs":[{"name":"interfaceId","type":"bytes4","internalType":"bytes4"}],"outputs":[{"name":"","type":"bool","internalType":"bool"}],"stateMutability":"view"},{"type":"event","name":"ApprovalForAll","inputs":[{"name":"account","type":"address","indexed":true,"internalType":"address"},{"name":"operator","type":"address","indexed":true,"internalType":"address"},{"name":"approved","type":"bool","indexed":false,"internalType":"bool"}],"anonymous":false},{"type":"event","name":"TransferBatch","inputs":[{"name":"operator","type":"address","indexed":true,"internalType":"address"},{"name":"from","type":"address","indexed":true,"internalType":"address"},{"name":"to","type":"address","indexed":true,"internalType":"address"},{"name":"ids","type":"uint256[]","indexed":false,"internalType":"uint256[]"},{"name":"values","type":"uint256[]","indexed":false,"internalType":"uint256[]"}],"anonymous":false},{"type":"event","name":"TransferSingle","inputs":[{"name":"operator","type":"address","indexed":true,"internalType":"address"},{"name":"from","type":"address","indexed":true,"internalType":"address"},{"name":"to","type":"address","indexed":true,"internalType":"address"},{"name":"id","type":"uint256","indexed":false,"internalType":"uint256"},{"name":"value","type":"uint256","indexed":false,"internalType":"uint256"}],"anonymous":false},{"type":"event","name":"URI","inputs":[{"name":"value","type":"string","indexed":false,"internalType":"string"},{"name":"id","type":"uint256","indexed":true,"internalType":"uint256"}],"anonymous":false}],"bytecode":{"object":"0x60808060405234601557610ea0908161001a8239f35b5f80fdfe60806040526004361015610011575f80fd5b5f3560e01c8062fdd58e14610a3c57806301ffc9a71461099b578063156e29f6146109195780632eb2c2d6146106205780634e1273f414610459578063a22cb465146103d4578063e985e9c51461037b5763f242432a14610070575f80fd5b346103775760a036600319011261037757610089610a80565b610091610a96565b604435906064359060843567ffffffffffffffff8111610377576100c16001600160a01b03913690600401610b57565b9416923384148015610355575b6100d790610c01565b6001600160a01b038216916100ed831515610c9a565b815f525f60205260405f20855f5260205260405f205461010f85821015610d0b565b5f838152602081815260408083208984529091528082209287900390925584815220805461013e908690610be0565b905582856040518481528660208201527fc3d58168c5ae7397731d063d5bbf3d657854427343f4c083240f7aacaa2d0f6260403392a43b61017b57005b5f6020946101bc6040519788968795869463f23a6e6160e01b865233600487015260248601526044850152606484015260a0608484015260a4830190610db4565b03925af15f9181610324575b50610287576101d5610dd8565b6308c379a014610250575b60405162461bcd60e51b815260206004820152603460248201527f455243313135353a207472616e7366657220746f206e6f6e2d4552433131353560448201527f526563656976657220696d706c656d656e746572000000000000000000000000606482015280608481015b0390fd5b610258610df3565b8061026357506101e0565b61024c9060405191829162461bcd60e51b8352602060048401526024830190610db4565b7fffffffff0000000000000000000000000000000000000000000000000000000063f23a6e6160e01b9116036102b957005b60405162461bcd60e51b815260206004820152602860248201527f455243313135353a204552433131353552656365697665722072656a6563746560448201527f6420746f6b656e730000000000000000000000000000000000000000000000006064820152608490fd5b61034791925060203d60201161034e575b61033f8183610aac565b810190610d7c565b905f6101c8565b503d610335565b505f84815260016020908152604080832033845290915290205460ff166100ce565b5f80fd5b3461037757604036600319011261037757610394610a80565b6001600160a01b036103a4610a96565b91165f5260016020526001600160a01b0360405f2091165f52602052602060ff60405f2054166040519015158152f35b34610377576040366003190112610377576103ed610a80565b60243590811515809203610377576001600160a01b0390335f52600160205260405f208282165f5260205260405f2060ff1981541660ff851617905560405192835216907f17307eab39ab6107e8899845ad3d59bd9653f200f220920489ca2b5937696c3160203392a3005b346103775760403660031901126103775760043567ffffffffffffffff8111610377573660238201121561037757806004013561049581610ae2565b916104a36040519384610aac565b8183526024602084019260051b8201019036821161037757602401915b818310610600578360243567ffffffffffffffff8111610377576104e8903690600401610afa565b81518151036105965781516104fc81610ae2565b9061050a6040519283610aac565b808252610519601f1991610ae2565b013660208301375f5b835181101561057c57806001600160a01b0361054060019387610c72565b511661054c8286610c72565b515f525f6020526001600160a01b0360405f2091165f5260205260405f20546105758285610c72565b5201610522565b6040516020808252819061059290820185610bad565b0390f35b608460405162461bcd60e51b815260206004820152602960248201527f455243313135353a206163636f756e747320616e6420696473206c656e67746860448201527f206d69736d6174636800000000000000000000000000000000000000000000006064820152fd5b82356001600160a01b0381168103610377578152602092830192016104c0565b346103775760a036600319011261037757610639610a80565b610641610a96565b60443567ffffffffffffffff811161037757610661903690600401610afa565b60643567ffffffffffffffff811161037757610681903690600401610afa565b9260843567ffffffffffffffff8111610377576106aa6001600160a01b03913690600401610b57565b91169133831480156108f7575b6106c090610c01565b805185510361088d576001600160a01b038416916106df831515610c9a565b5f5b825181101561076757806106f760019285610c72565b51610702828a610c72565b5190805f525f60205260405f20885f5260205260405f205461072683821015610d0b565b815f525f60205260405f20895f526020528260405f20910390555f525f60205260405f20865f5260205261075f60405f20918254610be0565b9055016106e1565b50938284604051604081527f4a39dc06d4c0dbc64b70af90fd698a233a518aa5d07e595d983b8c0526c8f7fb6107a06040830187610bad565b918083036020820152806107b533948d610bad565b0390a43b6107bf57005b5f6107fd9361082160209661080f604051998a988997889663bc197c8160e01b8852336004890152602488015260a0604488015260a4870190610bad565b85810360031901606487015290610bad565b83810360031901608485015290610db4565b03925af15f918161086c575b5061083a576101d5610dd8565b7fffffffff0000000000000000000000000000000000000000000000000000000063bc197c8160e01b9116036102b957005b61088691925060203d60201161034e5761033f8183610aac565b908261082d565b608460405162461bcd60e51b815260206004820152602860248201527f455243313135353a2069647320616e6420616d6f756e7473206c656e6774682060448201527f6d69736d617463680000000000000000000000000000000000000000000000006064820152fd5b505f83815260016020908152604080832033845290915290205460ff166106b7565b3461037757606036600319011261037757610932610a80565b5f6001600160a01b03602435926044358484528360205260408420838316855260205260408420610964828254610be0565b9055604051948552602085015216917fc3d58168c5ae7397731d063d5bbf3d657854427343f4c083240f7aacaa2d0f6260403392a4005b34610377576020366003190112610377576004357fffffffff00000000000000000000000000000000000000000000000000000000811680910361037757807fd9b67a260000000000000000000000000000000000000000000000000000000060209214908115610a12575b506040519015158152f35b7f01ffc9a70000000000000000000000000000000000000000000000000000000091501482610a07565b3461037757604036600319011261037757610a55610a80565b6024355f525f6020526001600160a01b0360405f2091165f52602052602060405f2054604051908152f35b600435906001600160a01b038216820361037757565b602435906001600160a01b038216820361037757565b90601f8019910116810190811067ffffffffffffffff821117610ace57604052565b634e487b7160e01b5f52604160045260245ffd5b67ffffffffffffffff8111610ace5760051b60200190565b9080601f83011215610377578135610b1181610ae2565b92610b1f6040519485610aac565b81845260208085019260051b82010192831161037757602001905b828210610b475750505090565b8135815260209182019101610b3a565b81601f820112156103775780359067ffffffffffffffff8211610ace5760405192610b8c601f8401601f191660200185610aac565b8284526020838301011161037757815f926020809301838601378301015290565b90602080835192838152019201905f5b818110610bca5750505090565b8251845260209384019390920191600101610bbd565b91908201809211610bed57565b634e487b7160e01b5f52601160045260245ffd5b15610c0857565b608460405162461bcd60e51b815260206004820152602960248201527f455243313135353a2063616c6c6572206973206e6f74206f776e6572206e6f7260448201527f20617070726f76656400000000000000000000000000000000000000000000006064820152fd5b8051821015610c865760209160051b010190565b634e487b7160e01b5f52603260045260245ffd5b15610ca157565b608460405162461bcd60e51b815260206004820152602560248201527f455243313135353a207472616e7366657220746f20746865207a65726f20616460448201527f64726573730000000000000000000000000000000000000000000000000000006064820152fd5b15610d1257565b608460405162461bcd60e51b815260206004820152602a60248201527f455243313135353a20696e73756666696369656e742062616c616e636520666f60448201527f72207472616e73666572000000000000000000000000000000000000000000006064820152fd5b9081602091031261037757517fffffffff00000000000000000000000000000000000000000000000000000000811681036103775790565b805180835260209291819084018484015e5f828201840152601f01601f1916010190565b5f9060033d11610de457565b905060045f803e5f5160e01c90565b5f60443d10610e59576040513d600319016004823e8051913d602484011167ffffffffffffffff841117610e64578282019283519167ffffffffffffffff8311610e5c573d84016003190185840160200111610e5c5750610e5992910160200190610aac565b90565b949350505050565b9291505056fea2646970667358221220377383c6c6b861e76da981e0100472fd622ba5948039814055b71d9c6267f83464736f6c634300081c0033","linkReferences":{}},"methodIdentifiers":{"balanceOf(address,uint256)":"00fdd58e","balanceOfBatch(address[],uint256[])":"4e1273f4","isApprovedForAll(address,address)":"e985e9c5","mint(address,uint256,uint256)":"156e29f6","safeBatchTransferFrom(address,address,uint256[],uint256[],bytes)":"2eb2c2d6","safeTransferFrom(address,address,uint256,uint256,bytes)":"f242432a","setApprovalForAll(address,bool)":"a22cb465","supportsInterface(bytes4)":"01ffc9a7"},"id":37}