{"abi":[{"type":"function","name":"MAX_BATCH_SIZE","inputs":[],"outputs":[{"name":"","type":"uint256","internalType":"uint256"}],"stateMutability":"view"},{"type":"error","name":"ActiveSaleInventoryRequired","inputs":[]},{"type":"error","name":"ArithmeticOverflow","inputs":[]},{"type":"error","name":"ArrayLengthMismatch","inputs":[]},{"type":"error","name":"BatchTooLarge","inputs":[]},{"type":"error","name":"DuplicateTokenId","inputs":[]},{"type":"error","name":"ExceedsMaxPerAddress","inputs":[]},{"type":"error","name":"ExceedsMaxSupply","inputs":[]},{"type":"error","name":"InsufficientInventory","inputs":[]},{"type":"error","name":"InsufficientPayment","inputs":[]},{"type":"error","name":"InvalidParam","inputs":[]},{"type":"error","name":"InvalidPaymentToken","inputs":[]},{"type":"error","name":"InvalidTimeRange","inputs":[]},{"type":"error","name":"NotInitialized","inputs":[]},{"type":"error","name":"SaleMustBeInactive","inputs":[]},{"type":"error","name":"SaleNotActive","inputs":[]},{"type":"error","name":"SaleNotFound","inputs":[]},{"type":"error","name":"UnauthorizedTokenTransfer","inputs":[]},{"type":"error","name":"ZeroAddress","inputs":[]},{"type":"error","name":"ZeroAmount","inputs":[]}],"bytecode":{"object":"0x6080806040523460175760709081601c823930815050f35b5f80fdfe60808060405260043610156011575f80fd5b5f3560e01c63cfdbf254146023575f80fd5b5f36600319011260365780603260209252f35b5f80fdfea2646970667358221220f222445b34967fcc872800786a10418404748b026fbecebe4976f72c8313bd9c64736f6c634300081c0033","linkReferences":{}},"methodIdentifiers":{"MAX_BATCH_SIZE()":"cfdbf254"},"id":30}