{"abi":[{"type":"constructor","inputs":[],"stateMutability":"nonpayable"},{"type":"fallback","stateMutability":"payable"},{"type":"receive","stateMutability":"payable"},{"type":"function","name":"activeSaleTokenIds","inputs":[{"name":"","type":"uint256","internalType":"uint256"}],"outputs":[{"name":"","type":"uint256","internalType":"uint256"}],"stateMutability":"view"},{"type":"function","name":"cancelOwnershipHandover","inputs":[],"outputs":[],"stateMutability":"payable"},{"type":"function","name":"completeOwnershipHandover","inputs":[{"name":"pendingOwner","type":"address","internalType":"address"}],"outputs":[],"stateMutability":"payable"},{"type":"function","name":"configSale","inputs":[{"name":"tokenId","type":"uint256","internalType":"uint256"},{"name":"price","type":"uint128","internalType":"uint128"},{"name":"startTime","type":"uint64","internalType":"uint64"},{"name":"endTime","type":"uint64","internalType":"uint64"},{"name":"maxSupply","type":"uint32","internalType":"uint32"},{"name":"maxPerAddress","type":"uint32","internalType":"uint32"},{"name":"paymentToken","type":"address","internalType":"address"},{"name":"checkInventory","type":"bool","internalType":"bool"}],"outputs":[],"stateMutability":"nonpayable"},{"type":"function","name":"emsWithdrawBatch","inputs":[{"name":"tokenIds","type":"uint256[]","internalType":"uint256[]"},{"name":"amounts","type":"uint256[]","internalType":"uint256[]"}],"outputs":[],"stateMutability":"nonpayable"},{"type":"function","name":"fundsRecipient","inputs":[],"outputs":[{"name":"","type":"address","internalType":"address"}],"stateMutability":"view"},{"type":"function","name":"getActiveSaleTokenIds","inputs":[],"outputs":[{"name":"","type":"uint256[]","internalType":"uint256[]"}],"stateMutability":"view"},{"type":"function","name":"getActiveSales","inputs":[],"outputs":[{"name":"","type":"uint256","internalType":"uint256"}],"stateMutability":"view"},{"type":"function","name":"getActiveSalesBatch","inputs":[{"name":"startIndex","type":"uint256","internalType":"uint256"},{"name":"count","type":"uint256","internalType":"uint256"}],"outputs":[{"name":"tokenIds","type":"uint256[]","internalType":"uint256[]"},{"name":"configs","type":"tuple[]","internalType":"struct VendingMachineCore.SaleConfig[]","components":[{"name":"price","type":"uint128","internalType":"uint128"},{"name":"startTime","type":"uint64","internalType":"uint64"},{"name":"endTime","type":"uint64","internalType":"uint64"},{"name":"maxSupply","type":"uint32","internalType":"uint32"},{"name":"maxPerAddress","type":"uint32","internalType":"uint32"},{"name":"totalSold","type":"uint32","internalType":"uint32"},{"name":"paymentToken","type":"address","internalType":"address"},{"name":"active","type":"bool","internalType":"bool"},{"name":"saleVersion","type":"uint64","internalType":"uint64"}]}],"stateMutability":"view"},{"type":"function","name":"getLiveSales","inputs":[],"outputs":[{"name":"tokenIds","type":"uint256[]","internalType":"uint256[]"},{"name":"configs","type":"tuple[]","internalType":"struct VendingMachineCore.SaleConfig[]","components":[{"name":"price","type":"uint128","internalType":"uint128"},{"name":"startTime","type":"uint64","internalType":"uint64"},{"name":"endTime","type":"uint64","internalType":"uint64"},{"name":"maxSupply","type":"uint32","internalType":"uint32"},{"name":"maxPerAddress","type":"uint32","internalType":"uint32"},{"name":"totalSold","type":"uint32","internalType":"uint32"},{"name":"paymentToken","type":"address","internalType":"address"},{"name":"active","type":"bool","internalType":"bool"},{"name":"saleVersion","type":"uint64","internalType":"uint64"}]}],"stateMutability":"view"},{"type":"function","name":"getRemainingSupply","inputs":[{"name":"tokenId","type":"uint256","internalType":"uint256"}],"outputs":[{"name":"","type":"uint32","internalType":"uint32"}],"stateMutability":"view"},{"type":"function","name":"getSaleInfo","inputs":[{"name":"tokenId","type":"uint256","internalType":"uint256"}],"outputs":[{"name":"price","type":"uint128","internalType":"uint128"},{"name":"startTime","type":"uint64","internalType":"uint64"},{"name":"endTime","type":"uint64","internalType":"uint64"},{"name":"maxSupply","type":"uint32","internalType":"uint32"},{"name":"maxPerAddress","type":"uint32","internalType":"uint32"},{"name":"totalSold","type":"uint32","internalType":"uint32"},{"name":"paymentToken","type":"address","internalType":"address"},{"name":"active","type":"bool","internalType":"bool"},{"name":"isLive","type":"bool","internalType":"bool"}],"stateMutability":"view"},{"type":"function","name":"getUserPurchaseInfo","inputs":[{"name":"tokenId","type":"uint256","internalType":"uint256"},{"name":"user","type":"address","internalType":"address"}],"outputs":[{"name":"purchased","type":"uint32","internalType":"uint32"},{"name":"remainingAllocation","type":"uint32","internalType":"uint32"},{"name":"canPurchase","type":"bool","internalType":"bool"}],"stateMutability":"view"},{"type":"function","name":"isSaleActive","inputs":[{"name":"tokenId","type":"uint256","internalType":"uint256"}],"outputs":[{"name":"","type":"bool","internalType":"bool"}],"stateMutability":"view"},{"type":"function","name":"ksItems","inputs":[],"outputs":[{"name":"","type":"address","internalType":"contract IERC1155"}],"stateMutability":"view"},{"type":"function","name":"onERC1155BatchReceived","inputs":[{"name":"","type":"address","internalType":"address"},{"name":"","type":"address","internalType":"address"},{"name":"","type":"uint256[]","internalType":"uint256[]"},{"name":"","type":"uint256[]","internalType":"uint256[]"},{"name":"","type":"bytes","internalType":"bytes"}],"outputs":[{"name":"","type":"bytes4","internalType":"bytes4"}],"stateMutability":"view"},{"type":"function","name":"onERC1155Received","inputs":[{"name":"","type":"address","internalType":"address"},{"name":"","type":"address","internalType":"address"},{"name":"","type":"uint256","internalType":"uint256"},{"name":"","type":"uint256","internalType":"uint256"},{"name":"","type":"bytes","internalType":"bytes"}],"outputs":[{"name":"","type":"bytes4","internalType":"bytes4"}],"stateMutability":"view"},{"type":"function","name":"owner","inputs":[],"outputs":[{"name":"result","type":"address","internalType":"address"}],"stateMutability":"view"},{"type":"function","name":"ownershipHandoverExpiresAt","inputs":[{"name":"pendingOwner","type":"address","internalType":"address"}],"outputs":[{"name":"result","type":"uint256","internalType":"uint256"}],"stateMutability":"view"},{"type":"function","name":"paused","inputs":[],"outputs":[{"name":"","type":"bool","internalType":"bool"}],"stateMutability":"view"},{"type":"function","name":"purchase","inputs":[{"name":"tokenId","type":"uint256","internalType":"uint256"},{"name":"quantity","type":"uint32","internalType":"uint32"}],"outputs":[],"stateMutability":"payable"},{"type":"function","name":"purchaseBatch","inputs":[{"name":"tokenIds","type":"uint256[]","internalType":"uint256[]"},{"name":"quantities","type":"uint32[]","internalType":"uint32[]"}],"outputs":[],"stateMutability":"payable"},{"type":"function","name":"purchaseBatchOptimized","inputs":[{"name":"tokenIds","type":"uint256[]","internalType":"uint256[]"},{"name":"quantities","type":"uint32[]","internalType":"uint32[]"}],"outputs":[],"stateMutability":"payable"},{"type":"function","name":"renounceOwnership","inputs":[],"outputs":[],"stateMutability":"payable"},{"type":"function","name":"requestOwnershipHandover","inputs":[],"outputs":[],"stateMutability":"payable"},{"type":"function","name":"saleConfigs","inputs":[{"name":"","type":"uint256","internalType":"uint256"}],"outputs":[{"name":"price","type":"uint128","internalType":"uint128"},{"name":"startTime","type":"uint64","internalType":"uint64"},{"name":"endTime","type":"uint64","internalType":"uint64"},{"name":"maxSupply","type":"uint32","internalType":"uint32"},{"name":"maxPerAddress","type":"uint32","internalType":"uint32"},{"name":"totalSold","type":"uint32","internalType":"uint32"},{"name":"paymentToken","type":"address","internalType":"address"},{"name":"active","type":"bool","internalType":"bool"},{"name":"saleVersion","type":"uint64","internalType":"uint64"}],"stateMutability":"view"},{"type":"function","name":"setFundsRecipient","inputs":[{"name":"_fundsRecipient","type":"address","internalType":"address"}],"outputs":[],"stateMutability":"nonpayable"},{"type":"function","name":"setKSItems","inputs":[{"name":"_ksItems","type":"address","internalType":"address"}],"outputs":[],"stateMutability":"nonpayable"},{"type":"function","name":"setPaused","inputs":[{"name":"_paused","type":"bool","internalType":"bool"}],"outputs":[],"stateMutability":"nonpayable"},{"type":"function","name":"setSaleStatus","inputs":[{"name":"tokenId","type":"uint256","internalType":"uint256"},{"name":"active","type":"bool","internalType":"bool"}],"outputs":[],"stateMutability":"nonpayable"},{"type":"function","name":"supportsInterface","inputs":[{"name":"interfaceId","type":"bytes4","internalType":"bytes4"}],"outputs":[{"name":"","type":"bool","internalType":"bool"}],"stateMutability":"pure"},{"type":"function","name":"transferOwnership","inputs":[{"name":"newOwner","type":"address","internalType":"address"}],"outputs":[],"stateMutability":"payable"},{"type":"function","name":"updateSaleParams","inputs":[{"name":"tokenId","type":"uint256","internalType":"uint256"},{"name":"newPrice","type":"uint128","internalType":"uint128"},{"name":"newEndTime","type":"uint64","internalType":"uint64"}],"outputs":[],"stateMutability":"nonpayable"},{"type":"function","name":"versionedUserPurchases","inputs":[{"name":"","type":"bytes32","internalType":"bytes32"}],"outputs":[{"name":"","type":"uint32","internalType":"uint32"}],"stateMutability":"view"},{"type":"function","name":"wdERC20","inputs":[{"name":"token","type":"address","internalType":"address"}],"outputs":[],"stateMutability":"nonpayable"},{"type":"function","name":"wdETH","inputs":[],"outputs":[],"stateMutability":"nonpayable"},{"type":"event","name":"BatchTokensWithdrawn","inputs":[{"name":"to","type":"address","indexed":true,"internalType":"address"},{"name":"tokenIds","type":"uint256[]","indexed":false,"internalType":"uint256[]"},{"name":"amounts","type":"uint256[]","indexed":false,"internalType":"uint256[]"}],"anonymous":false},{"type":"event","name":"ERC20Withdrawn","inputs":[{"name":"to","type":"address","indexed":true,"internalType":"address"},{"name":"token","type":"address","indexed":true,"internalType":"address"},{"name":"amount","type":"uint256","indexed":false,"internalType":"uint256"}],"anonymous":false},{"type":"event","name":"ETHWithdrawn","inputs":[{"name":"to","type":"address","indexed":true,"internalType":"address"},{"name":"amount","type":"uint256","indexed":false,"internalType":"uint256"}],"anonymous":false},{"type":"event","name":"FundsRecipientChanged","inputs":[{"name":"oldRecipient","type":"address","indexed":true,"internalType":"address"},{"name":"newRecipient","type":"address","indexed":true,"internalType":"address"}],"anonymous":false},{"type":"event","name":"KSItemsUpdated","inputs":[{"name":"oldKSItems","type":"address","indexed":true,"internalType":"address"},{"name":"newKSItems","type":"address","indexed":true,"internalType":"address"}],"anonymous":false},{"type":"event","name":"OwnershipHandoverCanceled","inputs":[{"name":"pendingOwner","type":"address","indexed":true,"internalType":"address"}],"anonymous":false},{"type":"event","name":"OwnershipHandoverRequested","inputs":[{"name":"pendingOwner","type":"address","indexed":true,"internalType":"address"}],"anonymous":false},{"type":"event","name":"OwnershipTransferred","inputs":[{"name":"oldOwner","type":"address","indexed":true,"internalType":"address"},{"name":"newOwner","type":"address","indexed":true,"internalType":"address"}],"anonymous":false},{"type":"event","name":"Purchase","inputs":[{"name":"buyer","type":"address","indexed":true,"internalType":"address"},{"name":"tokenId","type":"uint256","indexed":true,"internalType":"uint256"},{"name":"quantity","type":"uint32","indexed":false,"internalType":"uint32"},{"name":"price","type":"uint128","indexed":false,"internalType":"uint128"},{"name":"paymentToken","type":"address","indexed":false,"internalType":"address"}],"anonymous":false},{"type":"event","name":"SaleConfigured","inputs":[{"name":"tokenId","type":"uint256","indexed":true,"internalType":"uint256"},{"name":"price","type":"uint128","indexed":false,"internalType":"uint128"},{"name":"startTime","type":"uint64","indexed":false,"internalType":"uint64"},{"name":"endTime","type":"uint64","indexed":false,"internalType":"uint64"},{"name":"maxSupply","type":"uint32","indexed":false,"internalType":"uint32"},{"name":"maxPerAddress","type":"uint32","indexed":false,"internalType":"uint32"},{"name":"paymentToken","type":"address","indexed":false,"internalType":"address"}],"anonymous":false},{"type":"event","name":"SaleParamsUpdated","inputs":[{"name":"tokenId","type":"uint256","indexed":true,"internalType":"uint256"},{"name":"newPrice","type":"uint128","indexed":false,"internalType":"uint128"},{"name":"newEndTime","type":"uint64","indexed":false,"internalType":"uint64"}],"anonymous":false},{"type":"event","name":"SaleStatusUpdated","inputs":[{"name":"tokenId","type":"uint256","indexed":true,"internalType":"uint256"},{"name":"active","type":"bool","indexed":false,"internalType":"bool"}],"anonymous":false},{"type":"event","name":"SalesPaused","inputs":[{"name":"paused","type":"bool","indexed":false,"internalType":"bool"}],"anonymous":false},{"type":"error","name":"ActiveSaleInventoryRequired","inputs":[]},{"type":"error","name":"AlreadyInitialized","inputs":[]},{"type":"error","name":"ArithmeticOverflow","inputs":[]},{"type":"error","name":"ArrayLengthMismatch","inputs":[]},{"type":"error","name":"BatchTooLarge","inputs":[]},{"type":"error","name":"DuplicateTokenId","inputs":[]},{"type":"error","name":"ExceedsMaxPerAddress","inputs":[]},{"type":"error","name":"ExceedsMaxSupply","inputs":[]},{"type":"error","name":"InsufficientInventory","inputs":[]},{"type":"error","name":"InsufficientPayment","inputs":[]},{"type":"error","name":"InvalidParam","inputs":[]},{"type":"error","name":"InvalidPaymentToken","inputs":[]},{"type":"error","name":"InvalidTimeRange","inputs":[]},{"type":"error","name":"NewOwnerIsZeroAddress","inputs":[]},{"type":"error","name":"NoHandoverRequest","inputs":[]},{"type":"error","name":"NotInitialized","inputs":[]},{"type":"error","name":"Reentrancy","inputs":[]},{"type":"error","name":"SaleMustBeInactive","inputs":[]},{"type":"error","name":"SaleNotActive","inputs":[]},{"type":"error","name":"SaleNotFound","inputs":[]},{"type":"error","name":"Unauthorized","inputs":[]},{"type":"error","name":"UnauthorizedTokenTransfer","inputs":[]},{"type":"error","name":"ZeroAddress","inputs":[]},{"type":"error","name":"ZeroAmount","inputs":[]}],"bytecode":{"object":"0x60806040523460455733638b78c6d81955335f7f8be0079c531659141344cd1fd0a4f28419497f9722a3daafe3b4186f6b6457e08180a36040516134b6908161004a8239f35b5f80fdfe6080604052600436101561004c575b361561004a575f3560e01c63bc197c81811463f23a6e6182141763150b7a0282141761004157633c10b94e5f526004601cfd5b6020526020603cf35b005b5f5f3560e01c80627c20e01461272a57806301ffc9a71461268957806310a7eb5d1461260a57806312987fac146125db57806316c38b3c146125795780632569296214612530578063285f1239146124f15780633669ff2d146123ab5780633b6fd2cf146123855780633d9a129d14612185578063436141d21461216857806348b05c1c146120c35780634a1c548714611cc057806354d1f13d14611c7c5780635c975abb14611c5a578063619e40d41461174757806364b3b844146116475780636a550475146115b9578063715018a61461156e57806384eb2742146114e15780638c858a14146114055780638da5cb5b146113da578063a1cc68e81461116b578063aa84649114611103578063b54c5c3114610db1578063bc197c8114610ce6578063c031029514610cc0578063d3164dcf14610c86578063d89f906f1461085e578063e25ee6ea1461082e578063e8fabe9f14610669578063f04e283e1461061b578063f23a6e611461055d578063f2fde38b1461051e578063f9522d17146102175763fee81cf4146101e2575061000e565b34610214576020366003190112610214576101fb61288e565b9063389a75e1600c5252602080600c2054604051908152f35b80fd5b503461021457610226366129f7565b91610232939193612e84565b82810361050f57801561050057845b8181106103445750846001600160a01b03815416803b1561034057816040518092631759616b60e11b825230600483015233602483015260a06044830152818360206102a98c8c6102978d8d60a4890191612e47565b86810360031901606488015291612e47565b8284820391600319830160848701525201925af180156103355761031c575b50506103167f9b403a771808273f4b19e6278c6c361e06bb939d4c6ed87061d25514f044b5cc93610306604051948594604086526040860191612e47565b9083820360208501523396612e47565b0390a280f35b8161032691612ad4565b61033157845f6102c8565b8480fd5b6040513d84823e3d90fd5b5080fd5b61034f818385612dac565b35610370816001908060081c5f52600460205260ff60405f205491161c1690565b61037e575b50600101610241565b806104619188526002602052602063ffffffff61042360408b20604051906103a582612aa3565b80546001600160801b038116835267ffffffffffffffff8160801c168684015260c01c604083015260018101549161010067ffffffffffffffff60028786169485606086015288878b1c166080860152888760401c16968760a087015260601c60c0860152015460ff8116151560e085015260081c16910152612e2d565b16916001600160a01b038a54166040518080968194627eeac760e11b83523060048401602090939291936001600160a01b0360408201951681520152565b03915afa9182156104f55788926104bc575b506104899061048384888a612dac565b35612bc6565b11610494575f610375565b6004867f0223ac80000000000000000000000000000000000000000000000000000000008152fd5b9091506020813d82116104ed575b816104d760209383612ad4565b810103126104e9575190610489610473565b5f80fd5b3d91506104ca565b6040513d8a823e3d90fd5b600485631f2a200560e01b8152fd5b60048563512509d360e11b8152fd5b5060203660031901126102145761053361288e565b61053b612e84565b8060601b156105505761054d906133e6565b80f35b637448fbae82526004601cfd5b50346102145760a03660031901126102145761057761288e565b506105806128a4565b5060843567ffffffffffffffff8111610340576105a1903690600401612a49565b50506001600160a01b03815416801561060c5733036105e45760206040517ff23a6e61000000000000000000000000000000000000000000000000000000008152f35b807ffafbabf70000000000000000000000000000000000000000000000000000000060049252fd5b6004826321c4e35760e21b8152fd5b5060203660031901126102145761063061288e565b610638612e84565b63389a75e1600c528082526020600c208054421161065c57908261054d92556133e6565b636f5e881883526004601cfd5b50346102145760403660031901126102145763ffffffff6060916004359061068f6128a4565b9180825260026020526040822092604051926106aa84612aa3565b8454906001600160801b0382168552602085019567ffffffffffffffff8360801c168752604086019260c01c83526107376001820154946101008b8901978b88168952600260808b01958d8a60201c16875260a08c01998e8160401c168b528f1c60c08d015201549967ffffffffffffffff60e082019b60ff811615158d5260081c169283910152613424565b8252600360205287604083205416978891511680155f1461080f57505063ffffffff84511663ffffffff845116908181115f14610808576107789250612e2d565b935b51151594856107f2575b50846107dc575b50836107cc575b836107b5575b505063ffffffff9060405193845216602083015215156040820152f35b51905163ffffffff9182169082161192505f610798565b63ffffffff831615159350610792565b5167ffffffffffffffff1642111593505f61078b565b5167ffffffffffffffff1642101594505f610784565b5050610778565b81811115610827576108219250612e2d565b9361077a565b5050610821565b50346102145760203660031901126102145763ffffffff6040602092600435815260038452205416604051908152f35b50610868366129f7565b9190913068929eee149b4bd212685414610c79573068929eee149b4bd212685560ff60085416610c6a576001600160a01b038554169384158015610c57575b610c4857818303610c395760328311610c2a576108c48382612f91565b8594865b848110610af0575050841515938480610ae7575b610ad857908392916108ee8895612b0e565b926108f885612b0e565b94865b8181106109b85750505050506001600160a01b0383541691823b156109b45761093f92849283604051809681958294631759616b60e11b8452333060048601612de0565b03925af180156103355761099b575b5050610965575b503868929eee149b4bd212685580f35b61097a816001600160a01b03600154166133ca565b803411156109555761098f6109959134612bd3565b336133ca565b5f610955565b816109a591612ad4565b6109b057825f61094e565b8280fd5b8380fd5b838697987f714e3fbb2df13af8b07120aa3d8f928d203dded1e71973f209d02c91ac7b18e887986001600160801b036040610a0e610a09888b610a028c9d9e9f60019d8491612dac565b3599612dac565b612dbc565b9486815260026020522085610a3d888a840195865460601c80610aa6575b50610a38338a866132b3565b612be0565b528d610a508863ffffffff881692612be0565b525416905460601c90610a956040519283923396849160409194936001600160801b036001600160a01b039263ffffffff606087019816865216602085015216910152565b0390a30193929190899695946108fb565b610ad290610abe8888541663ffffffff8d1690612dcd565b906001600160a01b038f541690339061324c565b5f610a2c565b60048763cd1c886760e01b8152fd5b508534106108dc565b63ffffffff610b03610a0983878a612dac565b1615610c1b57610b2f610b17828786612dac565b35833391610b29610a09868a8d612dac565b90613022565b610b3a818685612dac565b35885260026020526040882060405190610b5382612aa3565b8054916001600160801b0383169283825267ffffffffffffffff8160801c16602083015260c01c604082015261010067ffffffffffffffff6002600185015463ffffffff8116606086015263ffffffff8160201c16608086015263ffffffff8160401c1660a086015260601c948560c0860152015460ff8116151560e085015260081c1691015215610be9575b506001016108c8565b8197610c0e610c149263ffffffff610c07610a096001978b8e612dac565b1690612dcd565b90612bc6565b9690610be0565b600488631f2a200560e01b8152fd5b6004866305beb17160e11b8152fd5b60048663512509d360e11b8152fd5b6004866321c4e35760e21b8152fd5b506001600160a01b0360015416156108a7565b60048563b7b2409760e01b8152fd5b63ab143c0685526004601cfd5b50346102145760203660031901126102145760043590600554821015610214576020610cb183612a77565b90549060031b1c604051908152f35b50346102145780600319360112610214576001600160a01b036020915416604051908152f35b50346102145760a036600319011261021457610d0061288e565b50610d096128a4565b5060443567ffffffffffffffff811161034057610d2a9036906004016129c6565b505060643567ffffffffffffffff811161034057610d4c9036906004016129c6565b505060843567ffffffffffffffff811161034057610d6e903690600401612a49565b50506001600160a01b03815416801561060c5733036105e45760206040517fbc197c81000000000000000000000000000000000000000000000000000000008152f35b503461021457604036600319011261021457600435602435801515908181036109b457610ddc612e84565b82845260026020526001600160801b03604085205416156110f4578284526002602052604084208115610f8057805467ffffffffffffffff8160c01c9160801c161015610f7157600181015463ffffffff811680158015610f5f575b610f50578654604051627eeac760e11b8152306004820152602481018890529290602090849060449082906001600160a01b03165afa9283156104f5578893610f18575b5063ffffffff9182610e929260401c1690612e2d565b1611610f095791610eff60209260027f2d3bae8a86328d81c6052cc734d7b8ce68d038e497e47282d614f310a4c7f94a95610ee4888060081c5f526004602052600160ff60405f2092161b8154179055565b610eed88612f08565b019060ff801983541691151516179055565b604051908152a280f35b600485638b2024a560e01b8152fd5b9092506020813d602011610f48575b81610f3460209383612ad4565b810103126104e957519163ffffffff610e7c565b3d9150610f27565b60048763c30436e960e01b8152fd5b508063ffffffff8360401c1611610e38565b60048563536a71af60e01b8152fd5b8360081c8552600460205260408520600160ff86161b198154169055838552600660205260ff604086205416610fe1575b91610eff60209260027f2d3bae8a86328d81c6052cc734d7b8ce68d038e497e47282d614f310a4c7f94a95610eed565b838552600760205260408520546005545f1981019081116110e057808203611098575b505060055480156110845760209260027f2d3bae8a86328d81c6052cc734d7b8ce68d038e497e47282d614f310a4c7f94a9593610eff935f190161104781612a77565b8154905f199060031b1b1916905560055587895260078652886040812055878952600686526040892060ff19815416905593955050925050610fb1565b602486634e487b7160e01b81526031600452fd5b6110a190612a77565b90549060031b1c6110cd816110b584612a77565b90919082549060031b91821b915f19901b1916179055565b8652600760205260408620555f80611004565b602487634e487b7160e01b81526011600452fd5b6004846356172c4160e01b8152fd5b503461021457806003193601126102145761111c612e84565b47801561115c5761112d81336133ca565b6040519081527f94b2de810873337ed265c5f8cf98c9cffefa06b8607f9a2f1fbaebdfbcfbef1c60203392a280f35b600482631f2a200560e01b8152fd5b5060403660031901126102145760043560243563ffffffff81168082036109b4573068929eee149b4bd2126854146113cd573068929eee149b4bd212685560ff600854166113be576001600160a01b03845416801580156113ab575b61139c578115610500576111de9033908486613022565b828452600260205260408420906111ff816001600160801b03845416612dcd565b906001830191825460601c6001600160a01b03600154169080155f1461135b575081341061134c5790611234818994936133ca565b803411611339575b505b6112493386886132b3565b6001600160a01b0382541690813b156109b057829160c4839260405194859384927ff242432a0000000000000000000000000000000000000000000000000000000084523060048501523360248501528c6044850152606484015260a060848401528160a48401525af1801561033557611324575b5050905490546040805163ffffffff9490941684526001600160801b039092166020840152606090811c9183019190915233917f714e3fbb2df13af8b07120aa3d8f928d203dded1e71973f209d02c91ac7b18e89190a33868929eee149b4bd212685580f35b8161132e91612ad4565b61033157845f6112be565b61098f6113469134612bd3565b5f61123c565b60048863cd1c886760e01b8152fd5b34611374579161136f91899493339061324c565b61123e565b6004897f56e7ec5f000000000000000000000000000000000000000000000000000000008152fd5b6004856321c4e35760e21b8152fd5b506001600160a01b0360015416156111c7565b60048463b7b2409760e01b8152fd5b63ab143c0684526004601cfd5b50346102145780600319360112610214576020638b78c6d819546001600160a01b0360405191168152f35b503461021457602036600319011261021457602090600435815260028252604081206040519061143482612aa3565b80546001600160801b038116835267ffffffffffffffff8160801c168584015260c01c604083015260018101549161010067ffffffffffffffff600263ffffffff86169485606086015263ffffffff878a1c16608086015263ffffffff8760401c16968760a087015260601c60c0860152015460ff8116151560e085015260081c169101528181115f146114da576114cc9250612e2d565b63ffffffff60405191168152f35b50506114cc565b503461021457806003193601126102145760405180916020600554928381520191600582527f036b6384b5eca791c62761152d0c79bb0604c104a5fb6f4eb0703f3154bb3db0915b818110611558576115548561154081870382612ad4565b6040519182916020835260208301906128ba565b0390f35b8254845260209093019260019283019201611529565b508060031936011261021457611582612e84565b80638b78c6d819547f8be0079c531659141344cd1fd0a4f28419497f9722a3daafe3b4186f6b6457e08280a380638b78c6d8195580f35b5034610214576020366003190112610214576001600160a01b036115db61288e565b6115e3612e84565b168015611638576001600160a01b0382548273ffffffffffffffffffffffffffffffffffffffff198216178455167f4dce78cdb02d224979f9aff4ca52fdd4ffcabf79f3418955cb70198ab39f0fc08380a380f35b60048263d92e233d60e01b8152fd5b503461021457602036600319011261021457604061012091600435815260026020522060405161167681612aa3565b8154906001600160801b0382169283825267ffffffffffffffff8360801c169283602084015260c01c80604084015260018201549063ffffffff821680606086015263ffffffff8360201c1691826080870152611713600263ffffffff8660401c16958660a08a015260601c968760c08a015201549667ffffffffffffffff60ff89161515988960e084015260081c166101008201524290612ea0565b96604051988952602089015260408801526060870152608086015260a085015260c084015260e08301521515610100820152f35b50611751366129f7565b919290923068929eee149b4bd212685414611c4d573068929eee149b4bd212685560ff60085416611c3e576001600160a01b035f54169283158015611c2b575b611c1c57808203611c0d5760328211611bfe576117ae8284612f91565b5f946117b983612af6565b946117c76040519687612ad4565b838652601f196117d685612af6565b013660208801376117e684612b0e565b5f915f905b868210611a21575050871515968780611a18575b611a09575f5b8381106119cb575050505061181983612b0e565b9261182381612b0e565b945f5b8281106118ae5750505050506001600160a01b035f541691823b156104e95761186a925f9283604051809681958294631759616b60e11b8452333060048601612de0565b03925af180156118a35761188e575b5061096557503868929eee149b4bd212685580f35b61189b9193505f90612ad4565b5f915f611879565b6040513d5f823e3d90fd5b806118d66118bf6001938686612dac565b3533906118d0610a09858b8b612dac565b906132b3565b6118e1818585612dac565b356118ec8289612be0565b5263ffffffff611900610a09838989612dac565b1661190b828a612be0565b52611917818585612dac565b35611926610a09838989612dac565b611931838787612dac565b355f5260026020527f714e3fbb2df13af8b07120aa3d8f928d203dded1e71973f209d02c91ac7b18e86001600160801b0360405f205416611973858989612dac565b355f5260026020528560405f20015460601c906119c26040519283923396849160409194936001600160801b036001600160a01b039263ffffffff606087019816865216602085015216910152565b0390a301611826565b80611a036001600160a01b036119e360019486612be0565b51166001600160a01b038454166119fa8488612be0565b5191339061324c565b01611805565b63cd1c886760e01b5f5260045ffd5b508834106117ff565b909863ffffffff611a36610a098c8989612dac565b1615611bef57611a5c8a83611a4c828b8d612dac565b35610b29610a0933948c8c612dac565b611a678a888a612dac565b355f52600260205260405f2090611b138b63ffffffff610c07610a0960405193611a9085612aa3565b8754946001600160801b0386169586825267ffffffffffffffff8160801c16602083015260c01c604082015261010067ffffffffffffffff600260018c01549b888d166060860152888d60201c166080860152888d60401c1660a086015260c085019c60601c8d52015460ff8116151560e085015260081c169101528c8c612dac565b916001600160a01b03815116155f14611b3c5750600191611b3391612bc6565b995b01906117eb565b8a905f9c93929c5f5b888110611b91575b5015611b5f575b505050600190611b35565b918691611b7b600195986001600160a01b038796511692612be0565b52611b868287612be0565b52019390895f611b54565b9091926001600160a01b03611ba68383612be0565b51166001600160a01b0385511614611bc55750600101908c9291611b45565b929150611be6611bdf85611bd9848b612be0565b51612bc6565b9188612be0565b5260015f611b4d565b631f2a200560e01b5f5260045ffd5b6305beb17160e11b5f5260045ffd5b63512509d360e11b5f5260045ffd5b6321c4e35760e21b5f5260045ffd5b506001600160a01b036001541615611791565b63b7b2409760e01b5f5260045ffd5b63ab143c065f526004601cfd5b346104e9575f3660031901126104e957602060ff600854166040519015158152f35b5f3660031901126104e95763389a75e1600c52335f525f6020600c2055337ffa7b8eab7da67f412cc9575ed43464468f9bfbae89d1675917346ca6d8fe3c925f80a2005b346104e9576101003660031901126104e957600435611cdd612861565b611ce5612877565b9060643567ffffffffffffffff81168091036104e95760843563ffffffff81168091036104e95760a4359163ffffffff83168093036104e95760c435936001600160a01b0385168095036104e95760e4359081151582036104e9576001600160801b0390611d51612e84565b16958615611bef5767ffffffffffffffff1690828210156120b4578315611bef57875f52600260205260ff600260405f2001541661208c57612000575b865f526002602052600167ffffffffffffffff600260405f20015460081c160167ffffffffffffffff8111611fec578790604051611dcb81612aa3565b8881526020810184815260408201908682526060830191888352608084018a815260a08501915f835260c08601938d855260e087019860018a5261010088019867ffffffffffffffff1689525f52600260205260405f2096516001600160801b03166001600160801b031687546fffffffffffffffffffffffffffffffff19161787555186549060801b77ffffffffffffffff0000000000000000000000000000000016907fffffffffffffffff0000000000000000ffffffffffffffffffffffffffffffff161786555167ffffffffffffffff16611ee790869077ffffffffffffffffffffffffffffffffffffffffffffffff77ffffffffffffffffffffffffffffffffffffffffffffffff1983549260c01b169116179055565b925192519051915163ffffffff90931667ffffffff0000000060209290921b919091161760409190911b6bffffffff0000000000000000161760609190911b6bffffffffffffffffffffffff191617600182015591516002909201805460ff9315159390931660ff19939093169290921782555181549060081b68ffffffffffffffff00169068ffffffffffffffff001916179055611f9d878060081c5f526004602052600160ff60405f2092161b8154179055565b611fa687612f08565b604051958652602086015260408501526060840152608083015260a082015260c07fa7e6ce2d386a5c3c2bb39570225a8834a3ec591ff228ff79eaf7ad0c0523d5b791a2005b634e487b7160e01b5f52601160045260245ffd5b5f54604051627eeac760e11b81523060048201526024810189905290602090829060449082906001600160a01b03165afa80156118a35784915f91612057575b501015611d8e575b638b2024a560e01b5f5260045ffd5b9150506020813d602011612084575b8161207360209383612ad4565b810103126104e95783905189612040565b3d9150612066565b7f75b5274a000000000000000000000000000000000000000000000000000000005f5260045ffd5b63536a71af60e01b5f5260045ffd5b346104e95760203660031901126104e9576004355f52600260205261012060405f2067ffffffffffffffff8154916002600182015491015490604051936001600160801b0381168552838160801c16602086015260c01c604085015263ffffffff8116606085015263ffffffff8160201c16608085015263ffffffff8160401c1660a085015260601c60c084015260ff8116151560e084015260081c16610100820152f35b346104e9575f3660031901126104e9576020600554604051908152f35b346104e9575f3660031901126104e9576005545f5f5b8281106122c157506121b56121af82612b0e565b91612b40565b915f5f5b8281106121d257505050611554604051928392836128ed565b6121db81612a77565b90549060031b1c805f52600260205260405f209067ffffffffffffffff60026040519361220785612aa3565b80546001600160801b0381168652838160801c16602087015260c01c6040860152600181015463ffffffff8116606087015263ffffffff8160201c16608087015263ffffffff8160401c1660a087015260601c60c0860152015460ff8116151560e085015260081c166101008301526122804283612ea0565b61228f575b50506001016121b9565b92600192939183926122a18389612be0565b526122ac8289612be0565b526122b78188612be0565b5001919086612285565b6122ca81612a77565b90549060031b1c5f52600260205261236d60405f2067ffffffffffffffff6002604051926122f784612aa3565b80546001600160801b0381168552838160801c16602086015260c01c6040850152600181015463ffffffff8116606086015263ffffffff8160201c16608086015263ffffffff8160401c1660a086015260601c60c0850152015460ff8116151560e084015260081c166101008201524290612ea0565b61237a575b60010161219b565b600190910190612372565b346104e9575f3660031901126104e95760206001600160a01b0360015416604051908152f35b346104e95760203660031901126104e9576123c461288e565b6123cc612e84565b6001600160a01b0381169081156124e257604051907f70a08231000000000000000000000000000000000000000000000000000000008252306004830152602082602481865afa9182156118a3575f926124ae575b508115611bef5733601452816034526fa9059cbb0000000000000000000000005f5260205f6044601082855af1908160015f51141615612490575b50505f6034526040519081527fbfed55bdcd242e3dd0f60ddd7d1e87c67f61c34cd9527b3e6455d841b102536260203392a3005b3b153d1710156124a157828061245c565b6390b8ec185f526004601cfd5b9091506020813d6020116124da575b816124ca60209383612ad4565b810103126104e957519083612421565b3d91506124bd565b63d92e233d60e01b5f5260045ffd5b346104e95760203660031901126104e95760206125266004356001908060081c5f52600460205260ff60405f205491161c1690565b6040519015158152f35b5f3660031901126104e95763389a75e1600c52335f526202a30042016020600c2055337fdbf36a107da19e49527a7176a1babf963b4b0ff8cde35ee35d6cd8f1f9ac7e1d5f80a2005b346104e95760203660031901126104e9576004358015158091036104e95760207f946daf4cb810fc46854501a3633cf3a64f661faa78a8da7a74d30bb563c14372916125c3612e84565b60ff196008541660ff821617600855604051908152a1005b346104e95760403660031901126104e9576125fa602435600435612bf4565b90611554604051928392836128ed565b346104e95760203660031901126104e9576001600160a01b0361262b61288e565b612633612e84565b1680156124e2576001600160a01b036001548273ffffffffffffffffffffffffffffffffffffffff19821617600155167f70a7ea5c664ab9c21baf3da59bb2f1e1ca33557b08a0031fab4f1707674499515f80a3005b346104e95760203660031901126104e9576004357fffffffff0000000000000000000000000000000000000000000000000000000081168091036104e957807f4e2312e00000000000000000000000000000000000000000000000000000000060209214908115612700575b506040519015158152f35b7f01ffc9a700000000000000000000000000000000000000000000000000000000915014826126f5565b346104e95760603660031901126104e957600435612746612861565b61274e612877565b612756612e84565b825f52600260205260405f20918254906001600160801b03821615612852576001600160801b0316908115611bef5767ffffffffffffffff83169060c01c811061282a5761281d60409385846fffffffffffffffffffffffffffffffff197fa17f9a8ce6faf4dba3f906753ff4c3012f359f79a0691b49c8f98ecf226eba609854161781559077ffffffffffffffffffffffffffffffffffffffffffffffff77ffffffffffffffffffffffffffffffffffffffffffffffff1983549260c01b169116179055565b82519182526020820152a2005b7fd2529034000000000000000000000000000000000000000000000000000000005f5260045ffd5b6356172c4160e01b5f5260045ffd5b602435906001600160801b03821682036104e957565b6044359067ffffffffffffffff821682036104e957565b600435906001600160a01b03821682036104e957565b602435906001600160a01b03821682036104e957565b90602080835192838152019201905f5b8181106128d75750505090565b82518452602093840193909201916001016128ca565b90612900906040835260408301906128ba565b906020818303910152602080835192838152019201905f5b8181106129255750505090565b909192602061012060019267ffffffffffffffff61010088516001600160801b0381511684528286820151168685015282604082015116604085015263ffffffff606082015116606085015263ffffffff608082015116608085015263ffffffff60a08201511660a08501526001600160a01b0360c08201511660c085015260e0810151151560e08501520151166101008201520194019101919091612918565b9181601f840112156104e95782359167ffffffffffffffff83116104e9576020808501948460051b0101116104e957565b60406003198201126104e95760043567ffffffffffffffff81116104e95781612a22916004016129c6565b929092916024359067ffffffffffffffff82116104e957612a45916004016129c6565b9091565b9181601f840112156104e95782359167ffffffffffffffff83116104e957602083818601950101116104e957565b600554811015612a8f5760055f5260205f2001905f90565b634e487b7160e01b5f52603260045260245ffd5b610120810190811067ffffffffffffffff821117612ac057604052565b634e487b7160e01b5f52604160045260245ffd5b90601f8019910116810190811067ffffffffffffffff821117612ac057604052565b67ffffffffffffffff8111612ac05760051b60200190565b90612b1882612af6565b612b256040519182612ad4565b8281528092612b36601f1991612af6565b0190602036910137565b90612b4a82612af6565b612b576040519182612ad4565b8281528092612b68601f1991612af6565b01905f5b828110612b7857505050565b602090604051612b8781612aa3565b5f81525f838201525f60408201525f60608201525f60808201525f60a08201525f60c08201525f60e08201525f61010082015282828501015201612b6c565b91908201809211611fec57565b91908203918211611fec57565b8051821015612a8f5760209160051b010190565b906005549081831015612d1f57612c1f91612c10849283612bc6565b90808211612d17575b50612bd3565b91612c2983612b0e565b92612c3381612b40565b925f5b828110612c4257505050565b80612c57612c5260019385612bc6565b612a77565b90549060031b1c80612c69838a612be0565b525f52600260205260405f2067ffffffffffffffff600260405192612c8d84612aa3565b80546001600160801b0381168552838160801c16602086015260c01c60408501528581015463ffffffff8116606086015263ffffffff8160201c16608086015263ffffffff8160401c1660a086015260601c60c0850152015460ff8116151560e084015260081c16610100820152612d058288612be0565b52612d108187612be0565b5001612c36565b90505f612c19565b505050602090604051612d328382612ad4565b5f81525f36813760405192612d478185612ad4565b5f8452601f1981015f5b818110612d5f575050509190565b8290604051612d6d81612aa3565b5f81525f838201525f60408201525f60608201525f60808201525f60a08201525f60c08201525f60e08201525f61010082015282828901015201612d51565b9190811015612a8f5760051b0190565b3563ffffffff811681036104e95790565b81810292918115918404141715611fec57565b92612e0f906001600160a01b03612e1d948160209895168752168686015260a0604086015260a08501906128ba565b9083820360608501526128ba565b9060808183039101525f81520190565b9063ffffffff8091169116039063ffffffff8211611fec57565b90918281527f07ffffffffffffffffffffffffffffffffffffffffffffffffffffffffffffff83116104e95760209260051b809284830137010190565b638b78c6d819543303612e9357565b6382b429005f526004601cfd5b60e081015115159182612eef575b82612ed6575b5081612ebe575090565b905063ffffffff60608160a084015116920151161190565b604082015167ffffffffffffffff16101591505f612eb4565b602082015167ffffffffffffffff168110159250612eae565b805f52600660205260ff60405f20541615612f205750565b6005549068010000000000000000821015612ac05760018201600555600554821015612a8f577f036b6384b5eca791c62761152d0c79bb0604c104a5fb6f4eb0703f3154bb3db082018190555f908152600660209081526040808320805460ff191660011790556007909152902055565b5f5b828110612f9f57505050565b6001810190818111611fec57815b848110612fbb575050612f93565b612fc6828686612dac565b35612fd2828787612dac565b3514612fe057600101612fad565b7f2bd1a05a000000000000000000000000000000000000000000000000000000005f5260045ffd5b9063ffffffff8091169116019063ffffffff8211611fec57565b9290928060081c5f526004602052600160405f205460ff83161c1615611c3e57805f52600260205260405f20936040519361305c85612aa3565b85546001600160801b0381168652602086019067ffffffffffffffff8160801c168252604087019060c01c8152600188015490606088019263ffffffff83168452600260808a019a63ffffffff8560201c168c5260a08b019463ffffffff8160401c16865260601c60c08c015201549867ffffffffffffffff61010060ff8c161592831560e0820152019a60081c168a52611c3e575167ffffffffffffffff164210908115613237575b50611c3e5763ffffffff61311e858280945116613008565b92511691161161322857604051627eeac760e11b81523060048201526024810184905290602090829060449082906001600160a01b03165afa9081156118a3575f916131f6575b5063ffffffff8216116120485763ffffffff855116613186575b5050505050565b6131a763ffffffff94936131ba9367ffffffffffffffff8796511690613424565b5f5260036020528260405f205416613008565b9251169116116131ce575f8080808061317f565b7f30db1f08000000000000000000000000000000000000000000000000000000005f5260045ffd5b90506020813d602011613220575b8161321160209383612ad4565b810103126104e957515f613165565b3d9150613204565b63c30436e960e01b5f5260045ffd5b67ffffffffffffffff9150511642115f613106565b916040519360605260405260601b602c526f23b872dd000000000000000000000000600c5260205f6064601c82855af1908160015f51141615613295575b50505f606052604052565b3b153d1710156132a6575f8061328a565b637939f4245f526004601cfd5b9091815f52600260205260405f2090600182019263ffffffff845460401c1663ffffffff861663ffffffff0363ffffffff8111611fec5763ffffffff16948582116133a25761335d946133516002926133158a67ffffffffffffffff96613008565b7fffffffffffffffffffffffffffffffffffffffff00000000ffffffffffffffff6bffffffff000000000000000083549260401b169116179055565b015460081c1690613424565b90815f52600360205263ffffffff60405f205416116133a2575f52600360205263ffffffff61339360405f209282845416613008565b1663ffffffff19825416179055565b7fe47ec074000000000000000000000000000000000000000000000000000000005f5260045ffd5b5f80809338935af1156133d957565b63b12d13eb5f526004601cfd5b6001600160a01b031680638b78c6d819547f8be0079c531659141344cd1fd0a4f28419497f9722a3daafe3b4186f6b6457e05f80a3638b78c6d81955565b916bffffffffffffffffffffffff199077ffffffffffffffffffffffffffffffffffffffffffffffff19604051936020850195865260c01b16604084015260601b166048820152603c815261347a605c82612ad4565b5190209056fea264697066735822122061864af5fce511a916a6ef534680d88c7d7b388664da9356d314e98375d5815664736f6c634300081c0033","linkReferences":{}},"methodIdentifiers":{"activeSaleTokenIds(uint256)":"d3164dcf","cancelOwnershipHandover()":"54d1f13d","completeOwnershipHandover(address)":"f04e283e","configSale(uint256,uint128,uint64,uint64,uint32,uint32,address,bool)":"4a1c5487","emsWithdrawBatch(uint256[],uint256[])":"f9522d17","fundsRecipient()":"3b6fd2cf","getActiveSaleTokenIds()":"84eb2742","getActiveSales()":"436141d2","getActiveSalesBatch(uint256,uint256)":"12987fac","getLiveSales()":"3d9a129d","getRemainingSupply(uint256)":"8c858a14","getSaleInfo(uint256)":"64b3b844","getUserPurchaseInfo(uint256,address)":"e8fabe9f","isSaleActive(uint256)":"285f1239","ksItems()":"c0310295","onERC1155BatchReceived(address,address,uint256[],uint256[],bytes)":"bc197c81","onERC1155Received(address,address,uint256,uint256,bytes)":"f23a6e61","owner()":"8da5cb5b","ownershipHandoverExpiresAt(address)":"fee81cf4","paused()":"5c975abb","purchase(uint256,uint32)":"a1cc68e8","purchaseBatch(uint256[],uint32[])":"d89f906f","purchaseBatchOptimized(uint256[],uint32[])":"619e40d4","renounceOwnership()":"715018a6","requestOwnershipHandover()":"25692962","saleConfigs(uint256)":"48b05c1c","setFundsRecipient(address)":"10a7eb5d","setKSItems(address)":"6a550475","setPaused(bool)":"16c38b3c","setSaleStatus(uint256,bool)":"b54c5c31","supportsInterface(bytes4)":"01ffc9a7","transferOwnership(address)":"f2fde38b","updateSaleParams(uint256,uint128,uint64)":"007c20e0","versionedUserPurchases(bytes32)":"e25ee6ea","wdERC20(address)":"3669ff2d","wdETH()":"aa846491"},"id":28}